{"abi":[{"type":"function","name":"BATCH_MODE","inputs":[],"outputs":[{"name":"","type":"bytes32","internalType":"bytes32"}],"stateMutability":"view"},{"type":"function","name":"EXECUTE_FROM_EXECUTOR","inputs":[],"outputs":[{"name":"","type":"bytes4","internalType":"bytes4"}],"stateMutability":"view"},{"type":"function","name":"isInitialized","inputs":[{"name":"smartAccount","type":"address","internalType":"address"}],"outputs":[{"name":"","type":"bool","internalType":"bool"}],"stateMutability":"view"},{"type":"function","name":"isModuleType","inputs":[{"name":"typeID","type":"uint256","internalType":"uint256"}],"outputs":[{"name":"","type":"bool","internalType":"bool"}],"stateMutability":"pure"},{"type":"function","name":"mockFill","inputs":[{"name":"account","type":"address","internalType":"address"},{"name":"ops","type":"tuple","internalType":"struct MockIntentExecutor.Operation","components":[{"name":"data","type":"bytes","internalType":"bytes"}]}],"outputs":[{"name":"","type":"bool","internalType":"bool"}],"stateMutability":"payable"},{"type":"function","name":"name","inputs":[],"outputs":[{"name":"","type":"string","internalType":"string"}],"stateMutability":"pure"},{"type":"function","name":"onInstall","inputs":[{"name":"data","type":"bytes","internalType":"bytes"}],"outputs":[],"stateMutability":"nonpayable"},{"type":"function","name":"onUninstall","inputs":[{"name":"data","type":"bytes","internalType":"bytes"}],"outputs":[],"stateMutability":"nonpayable"},{"type":"function","name":"version","inputs":[],"outputs":[{"name":"","type":"string","internalType":"string"}],"stateMutability":"pure"},{"type":"error","name":"ModuleAlreadyInitialized","inputs":[{"name":"smartAccount","type":"address","internalType":"address"}]},{"type":"error","name":"NotInitialized","inputs":[{"name":"smartAccount","type":"address","internalType":"address"}]}],"bytecode":{"object":"0x6080604052348015600e575f5ffd5b506109fd8061001c5f395ff3fe608060405260043610610085575f3560e01c80638a91b0e3116100585780638a91b0e31461012f578063b57cacb114610157578063b760331314610187578063d60b347f146101b1578063ecd05961146101ed57610085565b806306fdde031461008957806354fd4d50146100b3578063674b36b7146100dd5780636d61fe7014610107575b5f5ffd5b348015610094575f5ffd5b5061009d610229565b6040516100aa91906104cb565b60405180910390f35b3480156100be575f5ffd5b506100c7610266565b6040516100d491906104cb565b60405180910390f35b3480156100e8575f5ffd5b506100f16102a3565b6040516100fe9190610525565b60405180910390f35b348015610112575f5ffd5b5061012d600480360381019061012891906105a7565b6102ae565b005b34801561013a575f5ffd5b50610155600480360381019061015091906105a7565b6102b2565b005b610171600480360381019061016c919061066e565b6102b6565b60405161017e91906106e2565b60405180910390f35b348015610192575f5ffd5b5061019b610423565b6040516101a89190610713565b60405180910390f35b3480156101bc575f5ffd5b506101d760048036038101906101d2919061072c565b610449565b6040516101e491906106e2565b60405180910390f35b3480156101f8575f5ffd5b50610213600480360381019061020e919061078a565b61044f565b60405161022091906106e2565b60405180910390f35b60606040518060400160405280601081526020017f4578656375746f7254656d706c61746500000000000000000000000000000000815250905090565b60606040518060400160405280600581526020017f302e302e31000000000000000000000000000000000000000000000000000000815250905090565b63d691c96460e01b81565b5050565b5050565b5f5f8373ffffffffffffffffffffffffffffffffffffffff1663d691c96460e01b7f01000000000000000000000000000000000000000000000000000000000000005f1b85805f019061030991906107c1565b600290809261031a9392919061082b565b60405160240161032c939291906108af565b604051602081830303815290604052907bffffffffffffffffffffffffffffffffffffffffffffffffffffffff19166020820180517bffffffffffffffffffffffffffffffffffffffffffffffffffffffff83818316178352505050506040516103969190610923565b5f604051808303815f865af19150503d805f81146103cf576040519150601f19603f3d011682016040523d82523d5f602084013e6103d4565b606091505b5050905080610418576040517f08c379a000000000000000000000000000000000000000000000000000000000815260040161040f906109a9565b60405180910390fd5b600191505092915050565b7f01000000000000000000000000000000000000000000000000000000000000005f1b81565b5f919050565b5f600282149050919050565b5f81519050919050565b5f82825260208201905092915050565b8281835e5f83830152505050565b5f601f19601f8301169050919050565b5f61049d8261045b565b6104a78185610465565b93506104b7818560208601610475565b6104c081610483565b840191505092915050565b5f6020820190508181035f8301526104e38184610493565b905092915050565b5f7fffffffff0000000000000000000000000000000000000000000000000000000082169050919050565b61051f816104eb565b82525050565b5f6020820190506105385f830184610516565b92915050565b5f5ffd5b5f5ffd5b5f5ffd5b5f5ffd5b5f5ffd5b5f5f83601f84011261056757610566610546565b5b8235905067ffffffffffffffff8111156105845761058361054a565b5b6020830191508360018202830111156105a05761059f61054e565b5b9250929050565b5f5f602083850312156105bd576105bc61053e565b5b5f83013567ffffffffffffffff8111156105da576105d9610542565b5b6105e685828601610552565b92509250509250929050565b5f73ffffffffffffffffffffffffffffffffffffffff82169050919050565b5f61061b826105f2565b9050919050565b61062b81610611565b8114610635575f5ffd5b50565b5f8135905061064681610622565b92915050565b5f5ffd5b5f602082840312156106655761066461064c565b5b81905092915050565b5f5f604083850312156106845761068361053e565b5b5f61069185828601610638565b925050602083013567ffffffffffffffff8111156106b2576106b1610542565b5b6106be85828601610650565b9150509250929050565b5f8115159050919050565b6106dc816106c8565b82525050565b5f6020820190506106f55f8301846106d3565b92915050565b5f819050919050565b61070d816106fb565b82525050565b5f6020820190506107265f830184610704565b92915050565b5f602082840312156107415761074061053e565b5b5f61074e84828501610638565b91505092915050565b5f819050919050565b61076981610757565b8114610773575f5ffd5b50565b5f8135905061078481610760565b92915050565b5f6020828403121561079f5761079e61053e565b5b5f6107ac84828501610776565b91505092915050565b5f5ffd5b5f5ffd5b5f5ffd5b5f5f833560016020038436030381126107dd576107dc6107b5565b5b80840192508235915067ffffffffffffffff8211156107ff576107fe6107b9565b5b60208301925060018202360383131561081b5761081a6107bd565b5b509250929050565b5f5ffd5b5f5ffd5b5f5f8585111561083e5761083d610823565b5b8386111561084f5761084e610827565b5b6001850283019150848603905094509492505050565b5f82825260208201905092915050565b828183375f83830152505050565b5f61088e8385610865565b935061089b838584610875565b6108a483610483565b840190509392505050565b5f6040820190506108c25f830186610704565b81810360208301526108d5818486610883565b9050949350505050565b5f81519050919050565b5f81905092915050565b5f6108fd826108df565b61090781856108e9565b9350610917818560208601610475565b80840191505092915050565b5f61092e82846108f3565b915081905092915050565b7f4d6f636b496e74656e744578656375746f723a20657865637574696f6e2066615f8201527f696c656400000000000000000000000000000000000000000000000000000000602082015250565b5f610993602483610465565b915061099e82610939565b604082019050919050565b5f6020820190508181035f8301526109c081610987565b905091905056fea2646970667358221220e71e12c627dd65903faa82ac1c3b263c61b04c5dd53af5ab73e0eede5bc1504064736f6c634300081e0033","linkReferences":{}},"methodIdentifiers":{"BATCH_MODE()":"b7603313","EXECUTE_FROM_EXECUTOR()":"674b36b7","isInitialized(address)":"d60b347f","isModuleType(uint256)":"ecd05961","mockFill(address,(bytes))":"b57cacb1","name()":"06fdde03","onInstall(bytes)":"6d61fe70","onUninstall(bytes)":"8a91b0e3","version()":"54fd4d50"},"id":0}