{"abi":[{"type":"function","name":"mockFill","inputs":[{"name":"mockFills","type":"tuple[]","internalType":"struct MockRouter.MockFillCall[]","components":[{"name":"target","type":"address","internalType":"address"},{"name":"callData","type":"bytes","internalType":"bytes"}]}],"outputs":[],"stateMutability":"nonpayable"}],"bytecode":{"object":"0x6080604052348015600e575f5ffd5b506103d78061001c5f395ff3fe608060405234801561000f575f5ffd5b5060043610610029575f3560e01c80638b10923e1461002d575b5f5ffd5b610047600480360381019061004291906101bb565b610049565b005b5f5b8282905081101561014d575f83838381811061006a57610069610206565b5b905060200281019061007c919061023f565b5f01602081019061008d91906102c0565b9050365f8585858181106100a4576100a3610206565b5b90506020028101906100b6919061023f565b80602001906100c591906102eb565b915091505f8373ffffffffffffffffffffffffffffffffffffffff1683836040516100f1929190610389565b5f604051808303815f865af19150503d805f811461012a576040519150601f19603f3d011682016040523d82523d5f602084013e61012f565b606091505b505090508061013c575f5ffd5b50505050808060010191505061004b565b505050565b5f5ffd5b5f5ffd5b5f5ffd5b5f5ffd5b5f5ffd5b5f5f83601f84011261017b5761017a61015a565b5b8235905067ffffffffffffffff8111156101985761019761015e565b5b6020830191508360208202830111156101b4576101b3610162565b5b9250929050565b5f5f602083850312156101d1576101d0610152565b5b5f83013567ffffffffffffffff8111156101ee576101ed610156565b5b6101fa85828601610166565b92509250509250929050565b7f4e487b71000000000000000000000000000000000000000000000000000000005f52603260045260245ffd5b5f5ffd5b5f5ffd5b5f5ffd5b5f8235600160400383360303811261025a57610259610233565b5b80830191505092915050565b5f73ffffffffffffffffffffffffffffffffffffffff82169050919050565b5f61028f82610266565b9050919050565b61029f81610285565b81146102a9575f5ffd5b50565b5f813590506102ba81610296565b92915050565b5f602082840312156102d5576102d4610152565b5b5f6102e2848285016102ac565b91505092915050565b5f5f8335600160200384360303811261030757610306610233565b5b80840192508235915067ffffffffffffffff82111561032957610328610237565b5b6020830192506001820236038313156103455761034461023b565b5b509250929050565b5f81905092915050565b828183375f83830152505050565b5f610370838561034d565b935061037d838584610357565b82840190509392505050565b5f610395828486610365565b9150819050939250505056fea264697066735822122021036e0896c36987b6d0ebb8a95c69819dd09a2e75482b4730acc31ff5996f4c64736f6c634300081e0033","linkReferences":{}},"methodIdentifiers":{"mockFill((address,bytes)[])":"8b10923e"},"id":1}